{
  "_format": "hh-sol-artifact-1",
  "contractName": "EventStorage",
  "sourceName": "contracts/EventStorage.sol",
  "abi": [
    {
      "inputs": [],
      "stateMutability": "nonpayable",
      "type": "constructor"
    },
    {
      "anonymous": false,
      "inputs": [
        {
          "indexed": false,
          "internalType": "uint256",
          "name": "eventId",
          "type": "uint256"
        },
        {
          "indexed": false,
          "internalType": "uint256",
          "name": "ticketPrice",
          "type": "uint256"
        },
        {
          "indexed": false,
          "internalType": "uint256",
          "name": "ticketsAvailable",
          "type": "uint256"
        },
        {
          "indexed": true,
          "internalType": "address",
          "name": "owner",
          "type": "address"
        }
      ],
      "name": "EventCreated",
      "type": "event"
    },
    {
      "anonymous": false,
      "inputs": [
        {
          "indexed": false,
          "internalType": "uint256",
          "name": "eventId",
          "type": "uint256"
        },
        {
          "indexed": false,
          "internalType": "uint256",
          "name": "ticketPrice",
          "type": "uint256"
        },
        {
          "indexed": false,
          "internalType": "uint256",
          "name": "ticketsAvailable",
          "type": "uint256"
        },
        {
          "indexed": true,
          "internalType": "address",
          "name": "owner",
          "type": "address"
        }
      ],
      "name": "EventUpdated",
      "type": "event"
    },
    {
      "inputs": [
        {
          "internalType": "uint256",
          "name": "ticketPrice",
          "type": "uint256"
        },
        {
          "internalType": "uint256",
          "name": "ticketsAvailable",
          "type": "uint256"
        },
        {
          "internalType": "address",
          "name": "owner",
          "type": "address"
        }
      ],
      "name": "createEvent",
      "outputs": [
        {
          "components": [
            {
              "internalType": "uint256",
              "name": "eventId",
              "type": "uint256"
            },
            {
              "internalType": "address",
              "name": "owner",
              "type": "address"
            },
            {
              "internalType": "uint256",
              "name": "ticketPrice",
              "type": "uint256"
            },
            {
              "internalType": "uint256",
              "name": "ticketsAvailable",
              "type": "uint256"
            }
          ],
          "internalType": "struct EventStorage.EventObject",
          "name": "",
          "type": "tuple"
        }
      ],
      "stateMutability": "nonpayable",
      "type": "function"
    },
    {
      "inputs": [],
      "name": "currentEventId",
      "outputs": [
        {
          "internalType": "uint256",
          "name": "",
          "type": "uint256"
        }
      ],
      "stateMutability": "view",
      "type": "function"
    },
    {
      "inputs": [
        {
          "internalType": "uint256",
          "name": "",
          "type": "uint256"
        }
      ],
      "name": "events",
      "outputs": [
        {
          "internalType": "uint256",
          "name": "eventId",
          "type": "uint256"
        },
        {
          "internalType": "address",
          "name": "owner",
          "type": "address"
        },
        {
          "internalType": "uint256",
          "name": "ticketPrice",
          "type": "uint256"
        },
        {
          "internalType": "uint256",
          "name": "ticketsAvailable",
          "type": "uint256"
        }
      ],
      "stateMutability": "view",
      "type": "function"
    },
    {
      "inputs": [
        {
          "internalType": "uint256",
          "name": "eventId",
          "type": "uint256"
        }
      ],
      "name": "getEventObject",
      "outputs": [
        {
          "components": [
            {
              "internalType": "uint256",
              "name": "eventId",
              "type": "uint256"
            },
            {
              "internalType": "address",
              "name": "owner",
              "type": "address"
            },
            {
              "internalType": "uint256",
              "name": "ticketPrice",
              "type": "uint256"
            },
            {
              "internalType": "uint256",
              "name": "ticketsAvailable",
              "type": "uint256"
            }
          ],
          "internalType": "struct EventStorage.EventObject",
          "name": "",
          "type": "tuple"
        }
      ],
      "stateMutability": "view",
      "type": "function"
    },
    {
      "inputs": [
        {
          "internalType": "uint256",
          "name": "eventId",
          "type": "uint256"
        },
        {
          "internalType": "uint256",
          "name": "newTicketPrice",
          "type": "uint256"
        },
        {
          "internalType": "uint256",
          "name": "newTicketsAvailable",
          "type": "uint256"
        }
      ],
      "name": "updateEvent",
      "outputs": [
        {
          "components": [
            {
              "internalType": "uint256",
              "name": "eventId",
              "type": "uint256"
            },
            {
              "internalType": "address",
              "name": "owner",
              "type": "address"
            },
            {
              "internalType": "uint256",
              "name": "ticketPrice",
              "type": "uint256"
            },
            {
              "internalType": "uint256",
              "name": "ticketsAvailable",
              "type": "uint256"
            }
          ],
          "internalType": "struct EventStorage.EventObject",
          "name": "",
          "type": "tuple"
        }
      ],
      "stateMutability": "nonpayable",
      "type": "function"
    }
  ],
  "bytecode": "0x608060405234801561001057600080fd5b5060006001819055506109af806100286000396000f3fe608060405234801561001057600080fd5b50600436106100575760003560e01c8063091dbbd71461005c5780630b7914301461007a57806325298510146100ad5780635aa6f46f146100dd578063b9f636421461010d575b600080fd5b61006461013d565b60405161007191906105c0565b60405180910390f35b610094600480360381019061008f919061060c565b610143565b6040516100a4949392919061067a565b60405180910390f35b6100c760048036038101906100c291906106bf565b6101a3565b6040516100d49190610785565b60405180910390f35b6100f760048036038101906100f2919061060c565b610326565b6040516101049190610785565b60405180910390f35b610127600480360381019061012291906107cc565b61041a565b6040516101349190610785565b60405180910390f35b60015481565b6000818154811061015357600080fd5b90600052602060002090600402016000915090508060000154908060010160009054906101000a900473ffffffffffffffffffffffffffffffffffffffff16908060020154908060030154905084565b6101ab610569565b60015484106101ef576040517f08c379a00000000000000000000000000000000000000000000000000000000081526004016101e69061087c565b60405180910390fd5b60008085815481106102045761020361089c565b5b906000526020600020906004020190508381600201819055508281600301819055508060010160009054906101000a900473ffffffffffffffffffffffffffffffffffffffff1673ffffffffffffffffffffffffffffffffffffffff167fd8dc39d2246c50ccf63424c52a2c6969a9a0b6d6cb2491728d4af51e45235b26868686604051610294939291906108cb565b60405180910390a280604051806080016040529081600082015481526020016001820160009054906101000a900473ffffffffffffffffffffffffffffffffffffffff1673ffffffffffffffffffffffffffffffffffffffff1673ffffffffffffffffffffffffffffffffffffffff168152602001600282015481526020016003820154815250509150509392505050565b61032e610569565b6001548210610372576040517f08c379a00000000000000000000000000000000000000000000000000000000081526004016103699061087c565b60405180910390fd5b600082815481106103865761038561089c565b5b9060005260206000209060040201604051806080016040529081600082015481526020016001820160009054906101000a900473ffffffffffffffffffffffffffffffffffffffff1673ffffffffffffffffffffffffffffffffffffffff1673ffffffffffffffffffffffffffffffffffffffff168152602001600282015481526020016003820154815250509050919050565b610422610569565b6000604051806080016040528060015481526020018473ffffffffffffffffffffffffffffffffffffffff16815260200186815260200185815250905060008190806001815401808255809150506001900390600052602060002090600402016000909190919091506000820151816000015560208201518160010160006101000a81548173ffffffffffffffffffffffffffffffffffffffff021916908373ffffffffffffffffffffffffffffffffffffffff160217905550604082015181600201556060820151816003015550508273ffffffffffffffffffffffffffffffffffffffff167f6aa37de372001f0f191357e0d261ce94eea41ccd7fe776dafd460ec254573363600154878760405161053e939291906108cb565b60405180910390a26001600081548092919061055990610931565b9190505550809150509392505050565b604051806080016040528060008152602001600073ffffffffffffffffffffffffffffffffffffffff16815260200160008152602001600081525090565b6000819050919050565b6105ba816105a7565b82525050565b60006020820190506105d560008301846105b1565b92915050565b600080fd5b6105e9816105a7565b81146105f457600080fd5b50565b600081359050610606816105e0565b92915050565b600060208284031215610622576106216105db565b5b6000610630848285016105f7565b91505092915050565b600073ffffffffffffffffffffffffffffffffffffffff82169050919050565b600061066482610639565b9050919050565b61067481610659565b82525050565b600060808201905061068f60008301876105b1565b61069c602083018661066b565b6106a960408301856105b1565b6106b660608301846105b1565b95945050505050565b6000806000606084860312156106d8576106d76105db565b5b60006106e6868287016105f7565b93505060206106f7868287016105f7565b9250506040610708868287016105f7565b9150509250925092565b61071b816105a7565b82525050565b61072a81610659565b82525050565b6080820160008201516107466000850182610712565b5060208201516107596020850182610721565b50604082015161076c6040850182610712565b50606082015161077f6060850182610712565b50505050565b600060808201905061079a6000830184610730565b92915050565b6107a981610659565b81146107b457600080fd5b50565b6000813590506107c6816107a0565b92915050565b6000806000606084860312156107e5576107e46105db565b5b60006107f3868287016105f7565b9350506020610804868287016105f7565b9250506040610815868287016107b7565b9150509250925092565b600082825260208201905092915050565b7f4576656e7420646f6573206e6f742065786973742e0000000000000000000000600082015250565b600061086660158361081f565b915061087182610830565b602082019050919050565b6000602082019050818103600083015261089581610859565b9050919050565b7f4e487b7100000000000000000000000000000000000000000000000000000000600052603260045260246000fd5b60006060820190506108e060008301866105b1565b6108ed60208301856105b1565b6108fa60408301846105b1565b949350505050565b7f4e487b7100000000000000000000000000000000000000000000000000000000600052601160045260246000fd5b600061093c826105a7565b91507fffffffffffffffffffffffffffffffffffffffffffffffffffffffffffffffff820361096e5761096d610902565b5b60018201905091905056fea264697066735822122010f7834a4237c5a7a2780b22390c557976cedec7bc262591d413861501961a5d64736f6c63430008140033",
  "linkReferences": {},
  "deployedLinkReferences": {}
}