{
  "_format": "hh-sol-artifact-1",
  "contractName": "EventManagement",
  "sourceName": "contracts/EventManagement.sol",
  "abi": [
    {
      "inputs": [
        {
          "internalType": "address",
          "name": "_eventStorageAddress",
          "type": "address"
        },
        {
          "internalType": "address",
          "name": "_ticketStorageAddress",
          "type": "address"
        }
      ],
      "stateMutability": "nonpayable",
      "type": "constructor"
    },
    {
      "inputs": [
        {
          "internalType": "uint256",
          "name": "ticketPrice",
          "type": "uint256"
        },
        {
          "internalType": "uint256",
          "name": "ticketsAvailable",
          "type": "uint256"
        }
      ],
      "name": "createEvent",
      "outputs": [],
      "stateMutability": "nonpayable",
      "type": "function"
    },
    {
      "inputs": [],
      "name": "owner",
      "outputs": [
        {
          "internalType": "address",
          "name": "",
          "type": "address"
        }
      ],
      "stateMutability": "view",
      "type": "function"
    },
    {
      "inputs": [
        {
          "internalType": "uint256",
          "name": "eventId",
          "type": "uint256"
        },
        {
          "internalType": "uint256",
          "name": "ticketNumber",
          "type": "uint256"
        }
      ],
      "name": "redeemTicket",
      "outputs": [],
      "stateMutability": "nonpayable",
      "type": "function"
    },
    {
      "inputs": [
        {
          "internalType": "uint256",
          "name": "eventId",
          "type": "uint256"
        },
        {
          "internalType": "uint256",
          "name": "newTicketPrice",
          "type": "uint256"
        },
        {
          "internalType": "uint256",
          "name": "newTicketsAvailable",
          "type": "uint256"
        }
      ],
      "name": "updateEvent",
      "outputs": [],
      "stateMutability": "nonpayable",
      "type": "function"
    }
  ],
  "bytecode": "0x608060405234801561001057600080fd5b50604051610b73380380610b738339818101604052810190610032919061015e565b816000806101000a81548173ffffffffffffffffffffffffffffffffffffffff021916908373ffffffffffffffffffffffffffffffffffffffff16021790555080600160006101000a81548173ffffffffffffffffffffffffffffffffffffffff021916908373ffffffffffffffffffffffffffffffffffffffff16021790555033600260006101000a81548173ffffffffffffffffffffffffffffffffffffffff021916908373ffffffffffffffffffffffffffffffffffffffff160217905550505061019e565b600080fd5b600073ffffffffffffffffffffffffffffffffffffffff82169050919050565b600061012b82610100565b9050919050565b61013b81610120565b811461014657600080fd5b50565b60008151905061015881610132565b92915050565b60008060408385031215610175576101746100fb565b5b600061018385828601610149565b925050602061019485828601610149565b9150509250929050565b6109c6806101ad6000396000f3fe608060405234801561001057600080fd5b506004361061004c5760003560e01c8063191c87ab14610051578063252985101461006d578063790c0125146100895780638da5cb5b146100a5575b600080fd5b61006b600480360381019061006691906104f0565b6100c3565b005b61008760048036038101906100829190610530565b6101f8565b005b6100a3600480360381019061009e91906104f0565b61032e565b005b6100ad610485565b6040516100ba91906105c4565b60405180910390f35b600260009054906101000a900473ffffffffffffffffffffffffffffffffffffffff1673ffffffffffffffffffffffffffffffffffffffff163373ffffffffffffffffffffffffffffffffffffffff1614610153576040517f08c379a000000000000000000000000000000000000000000000000000000000815260040161014a90610662565b60405180910390fd5b600160009054906101000a900473ffffffffffffffffffffffffffffffffffffffff1673ffffffffffffffffffffffffffffffffffffffff1663191c87ab83836040518363ffffffff1660e01b81526004016101b0929190610691565b60a0604051808303816000875af11580156101cf573d6000803e3d6000fd5b505050506040513d601f19601f820116820180604052508101906101f39190610850565b505050565b600260009054906101000a900473ffffffffffffffffffffffffffffffffffffffff1673ffffffffffffffffffffffffffffffffffffffff163373ffffffffffffffffffffffffffffffffffffffff1614610288576040517f08c379a000000000000000000000000000000000000000000000000000000000815260040161027f90610662565b60405180910390fd5b60008054906101000a900473ffffffffffffffffffffffffffffffffffffffff1673ffffffffffffffffffffffffffffffffffffffff1663252985108484846040518463ffffffff1660e01b81526004016102e59392919061087d565b6080604051808303816000875af1158015610304573d6000803e3d6000fd5b505050506040513d601f19601f82011682018060405250810190610328919061092c565b50505050565b600260009054906101000a900473ffffffffffffffffffffffffffffffffffffffff1673ffffffffffffffffffffffffffffffffffffffff163373ffffffffffffffffffffffffffffffffffffffff16146103be576040517f08c379a00000000000000000000000000000000000000000000000000000000081526004016103b590610662565b60405180910390fd5b60008054906101000a900473ffffffffffffffffffffffffffffffffffffffff1673ffffffffffffffffffffffffffffffffffffffff1663b9f636428383600260009054906101000a900473ffffffffffffffffffffffffffffffffffffffff166040518463ffffffff1660e01b815260040161043d93929190610959565b6080604051808303816000875af115801561045c573d6000803e3d6000fd5b505050506040513d601f19601f82011682018060405250810190610480919061092c565b505050565b600260009054906101000a900473ffffffffffffffffffffffffffffffffffffffff1681565b6000604051905090565b600080fd5b6000819050919050565b6104cd816104ba565b81146104d857600080fd5b50565b6000813590506104ea816104c4565b92915050565b60008060408385031215610507576105066104b5565b5b6000610515858286016104db565b9250506020610526858286016104db565b9150509250929050565b600080600060608486031215610549576105486104b5565b5b6000610557868287016104db565b9350506020610568868287016104db565b9250506040610579868287016104db565b9150509250925092565b600073ffffffffffffffffffffffffffffffffffffffff82169050919050565b60006105ae82610583565b9050919050565b6105be816105a3565b82525050565b60006020820190506105d960008301846105b5565b92915050565b600082825260208201905092915050565b7f4163636573732064656e6965643a204e6f7420746865206576656e74206f776e60008201527f65722e0000000000000000000000000000000000000000000000000000000000602082015250565b600061064c6023836105df565b9150610657826105f0565b604082019050919050565b6000602082019050818103600083015261067b8161063f565b9050919050565b61068b816104ba565b82525050565b60006040820190506106a66000830185610682565b6106b36020830184610682565b9392505050565b600080fd5b6000601f19601f8301169050919050565b7f4e487b7100000000000000000000000000000000000000000000000000000000600052604160045260246000fd5b610708826106bf565b810181811067ffffffffffffffff82111715610727576107266106d0565b5b80604052505050565b600061073a6104ab565b905061074682826106ff565b919050565b60008151905061075a816104c4565b92915050565b610769816105a3565b811461077457600080fd5b50565b60008151905061078681610760565b92915050565b60008115159050919050565b6107a18161078c565b81146107ac57600080fd5b50565b6000815190506107be81610798565b92915050565b600060a082840312156107da576107d96106ba565b5b6107e460a0610730565b905060006107f48482850161074b565b60008301525060206108088482850161074b565b602083015250604061081c8482850161074b565b604083015250606061083084828501610777565b6060830152506080610844848285016107af565b60808301525092915050565b600060a08284031215610866576108656104b5565b5b6000610874848285016107c4565b91505092915050565b60006060820190506108926000830186610682565b61089f6020830185610682565b6108ac6040830184610682565b949350505050565b6000608082840312156108ca576108c96106ba565b5b6108d46080610730565b905060006108e48482850161074b565b60008301525060206108f884828501610777565b602083015250604061090c8482850161074b565b60408301525060606109208482850161074b565b60608301525092915050565b600060808284031215610942576109416104b5565b5b6000610950848285016108b4565b91505092915050565b600060608201905061096e6000830186610682565b61097b6020830185610682565b61098860408301846105b5565b94935050505056fea2646970667358221220211bd0a0ff02f6e78a81bbbc39c0fd61c1a30b32be98fc35d12d0e80269c7a7764736f6c63430008140033",
  "linkReferences": {},
  "deployedLinkReferences": {}
}