{
  "_format": "hh-sol-artifact-1",
  "contractName": "TicketManagement",
  "sourceName": "contracts/TicketManagement.sol",
  "abi": [
    {
      "inputs": [
        {
          "internalType": "address",
          "name": "_eventStorageAddress",
          "type": "address"
        },
        {
          "internalType": "address",
          "name": "_ticketStorageAddress",
          "type": "address"
        }
      ],
      "stateMutability": "nonpayable",
      "type": "constructor"
    },
    {
      "inputs": [
        {
          "internalType": "uint256",
          "name": "eventId",
          "type": "uint256"
        }
      ],
      "name": "buyTicket",
      "outputs": [],
      "stateMutability": "payable",
      "type": "function"
    }
  ],
  "bytecode": "0x608060405234801561001057600080fd5b50604051610a95380380610a958339818101604052810190610032919061011d565b816000806101000a81548173ffffffffffffffffffffffffffffffffffffffff021916908373ffffffffffffffffffffffffffffffffffffffff16021790555080600160006101000a81548173ffffffffffffffffffffffffffffffffffffffff021916908373ffffffffffffffffffffffffffffffffffffffff160217905550505061015d565b600080fd5b600073ffffffffffffffffffffffffffffffffffffffff82169050919050565b60006100ea826100bf565b9050919050565b6100fa816100df565b811461010557600080fd5b50565b600081519050610117816100f1565b92915050565b60008060408385031215610134576101336100ba565b5b600061014285828601610108565b925050602061015385828601610108565b9150509250929050565b6109298061016c6000396000f3fe60806040526004361061001e5760003560e01c806367dd74ca14610023575b600080fd5b61003d600480360381019061003891906103fe565b61003f565b005b60008060009054906101000a900473ffffffffffffffffffffffffffffffffffffffff1673ffffffffffffffffffffffffffffffffffffffff16635aa6f46f836040518263ffffffff1660e01b815260040161009b919061043a565b608060405180830381865afa1580156100b8573d6000803e3d6000fd5b505050506040513d601f19601f820116820180604052508101906100dc91906105d1565b90506000816060015111610125576040517f08c379a000000000000000000000000000000000000000000000000000000000815260040161011c9061065b565b60405180910390fd5b8060400151341461016b576040517f08c379a0000000000000000000000000000000000000000000000000000000008152600401610162906106c7565b60405180910390fd5b6000600160009054906101000a900473ffffffffffffffffffffffffffffffffffffffff1673ffffffffffffffffffffffffffffffffffffffff1663433420e3846040518263ffffffff1660e01b81526004016101c8919061043a565b602060405180830381865afa1580156101e5573d6000803e3d6000fd5b505050506040513d601f19601f8201168201806040525081019061020991906106e7565b9050600160009054906101000a900473ffffffffffffffffffffffffffffffffffffffff1673ffffffffffffffffffffffffffffffffffffffff16632d8c5b5e84838560400151336040518563ffffffff1660e01b81526004016102709493929190610723565b60a0604051808303816000875af115801561028f573d6000803e3d6000fd5b505050506040513d601f19601f820116820180604052508101906102b3919061082c565b5060008054906101000a900473ffffffffffffffffffffffffffffffffffffffff1673ffffffffffffffffffffffffffffffffffffffff166325298510848460400151600186606001516103079190610888565b6040518463ffffffff1660e01b8152600401610325939291906108bc565b6080604051808303816000875af1158015610344573d6000803e3d6000fd5b505050506040513d601f19601f8201168201806040525081019061036891906105d1565b50816020015173ffffffffffffffffffffffffffffffffffffffff166108fc349081150290604051600060405180830381858888f193505050501580156103b3573d6000803e3d6000fd5b50505050565b6000604051905090565b600080fd5b6000819050919050565b6103db816103c8565b81146103e657600080fd5b50565b6000813590506103f8816103d2565b92915050565b600060208284031215610414576104136103c3565b5b6000610422848285016103e9565b91505092915050565b610434816103c8565b82525050565b600060208201905061044f600083018461042b565b92915050565b600080fd5b6000601f19601f8301169050919050565b7f4e487b7100000000000000000000000000000000000000000000000000000000600052604160045260246000fd5b6104a38261045a565b810181811067ffffffffffffffff821117156104c2576104c161046b565b5b80604052505050565b60006104d56103b9565b90506104e1828261049a565b919050565b6000815190506104f5816103d2565b92915050565b600073ffffffffffffffffffffffffffffffffffffffff82169050919050565b6000610526826104fb565b9050919050565b6105368161051b565b811461054157600080fd5b50565b6000815190506105538161052d565b92915050565b60006080828403121561056f5761056e610455565b5b61057960806104cb565b90506000610589848285016104e6565b600083015250602061059d84828501610544565b60208301525060406105b1848285016104e6565b60408301525060606105c5848285016104e6565b60608301525092915050565b6000608082840312156105e7576105e66103c3565b5b60006105f584828501610559565b91505092915050565b600082825260208201905092915050565b7f4e6f207469636b65747320617661696c61626c652e0000000000000000000000600082015250565b60006106456015836105fe565b91506106508261060f565b602082019050919050565b6000602082019050818103600083015261067481610638565b9050919050565b7f496e636f7272656374207469636b65742070726963652e000000000000000000600082015250565b60006106b16017836105fe565b91506106bc8261067b565b602082019050919050565b600060208201905081810360008301526106e0816106a4565b9050919050565b6000602082840312156106fd576106fc6103c3565b5b600061070b848285016104e6565b91505092915050565b61071d8161051b565b82525050565b6000608082019050610738600083018761042b565b610745602083018661042b565b610752604083018561042b565b61075f6060830184610714565b95945050505050565b60008115159050919050565b61077d81610768565b811461078857600080fd5b50565b60008151905061079a81610774565b92915050565b600060a082840312156107b6576107b5610455565b5b6107c060a06104cb565b905060006107d0848285016104e6565b60008301525060206107e4848285016104e6565b60208301525060406107f8848285016104e6565b604083015250606061080c84828501610544565b60608301525060806108208482850161078b565b60808301525092915050565b600060a08284031215610842576108416103c3565b5b6000610850848285016107a0565b91505092915050565b7f4e487b7100000000000000000000000000000000000000000000000000000000600052601160045260246000fd5b6000610893826103c8565b915061089e836103c8565b92508282039050818111156108b6576108b5610859565b5b92915050565b60006060820190506108d1600083018661042b565b6108de602083018561042b565b6108eb604083018461042b565b94935050505056fea2646970667358221220d25e161fbe513d52630256ba64b7827a7187d287399fccb818a8efccce5c82f364736f6c63430008140033",
  "linkReferences": {},
  "deployedLinkReferences": {}
}