{
  "_format": "hh-sol-artifact-1",
  "contractName": "EventStorage",
  "sourceName": "contracts/EventStorage.sol",
  "abi": [
    {
      "inputs": [],
      "stateMutability": "nonpayable",
      "type": "constructor"
    },
    {
      "anonymous": false,
      "inputs": [
        {
          "indexed": true,
          "internalType": "uint256",
          "name": "eventId",
          "type": "uint256"
        },
        {
          "indexed": false,
          "internalType": "uint256",
          "name": "ticketPrice",
          "type": "uint256"
        },
        {
          "indexed": false,
          "internalType": "uint256",
          "name": "ticketsAvailable",
          "type": "uint256"
        },
        {
          "indexed": true,
          "internalType": "address",
          "name": "owner",
          "type": "address"
        }
      ],
      "name": "EventCreated",
      "type": "event"
    },
    {
      "anonymous": false,
      "inputs": [
        {
          "indexed": true,
          "internalType": "uint256",
          "name": "eventId",
          "type": "uint256"
        },
        {
          "indexed": false,
          "internalType": "uint256",
          "name": "ticketPrice",
          "type": "uint256"
        },
        {
          "indexed": false,
          "internalType": "uint256",
          "name": "ticketsAvailable",
          "type": "uint256"
        },
        {
          "indexed": true,
          "internalType": "address",
          "name": "owner",
          "type": "address"
        }
      ],
      "name": "EventUpdated",
      "type": "event"
    },
    {
      "inputs": [
        {
          "internalType": "uint256",
          "name": "ticketPrice",
          "type": "uint256"
        },
        {
          "internalType": "uint256",
          "name": "ticketsAvailable",
          "type": "uint256"
        },
        {
          "internalType": "address",
          "name": "owner",
          "type": "address"
        }
      ],
      "name": "createEvent",
      "outputs": [
        {
          "components": [
            {
              "internalType": "uint256",
              "name": "eventId",
              "type": "uint256"
            },
            {
              "internalType": "address",
              "name": "owner",
              "type": "address"
            },
            {
              "internalType": "uint256",
              "name": "ticketPrice",
              "type": "uint256"
            },
            {
              "internalType": "uint256",
              "name": "ticketsAvailable",
              "type": "uint256"
            }
          ],
          "internalType": "struct EventStorage.EventObject",
          "name": "",
          "type": "tuple"
        }
      ],
      "stateMutability": "nonpayable",
      "type": "function"
    },
    {
      "inputs": [],
      "name": "currentEventId",
      "outputs": [
        {
          "internalType": "uint256",
          "name": "",
          "type": "uint256"
        }
      ],
      "stateMutability": "view",
      "type": "function"
    },
    {
      "inputs": [
        {
          "internalType": "uint256",
          "name": "",
          "type": "uint256"
        }
      ],
      "name": "events",
      "outputs": [
        {
          "internalType": "uint256",
          "name": "eventId",
          "type": "uint256"
        },
        {
          "internalType": "address",
          "name": "owner",
          "type": "address"
        },
        {
          "internalType": "uint256",
          "name": "ticketPrice",
          "type": "uint256"
        },
        {
          "internalType": "uint256",
          "name": "ticketsAvailable",
          "type": "uint256"
        }
      ],
      "stateMutability": "view",
      "type": "function"
    },
    {
      "inputs": [
        {
          "internalType": "uint256",
          "name": "eventId",
          "type": "uint256"
        }
      ],
      "name": "getEventObject",
      "outputs": [
        {
          "components": [
            {
              "internalType": "uint256",
              "name": "eventId",
              "type": "uint256"
            },
            {
              "internalType": "address",
              "name": "owner",
              "type": "address"
            },
            {
              "internalType": "uint256",
              "name": "ticketPrice",
              "type": "uint256"
            },
            {
              "internalType": "uint256",
              "name": "ticketsAvailable",
              "type": "uint256"
            }
          ],
          "internalType": "struct EventStorage.EventObject",
          "name": "",
          "type": "tuple"
        }
      ],
      "stateMutability": "view",
      "type": "function"
    },
    {
      "inputs": [
        {
          "internalType": "uint256",
          "name": "eventId",
          "type": "uint256"
        },
        {
          "internalType": "uint256",
          "name": "newTicketPrice",
          "type": "uint256"
        },
        {
          "internalType": "uint256",
          "name": "newTicketsAvailable",
          "type": "uint256"
        }
      ],
      "name": "updateEvent",
      "outputs": [
        {
          "components": [
            {
              "internalType": "uint256",
              "name": "eventId",
              "type": "uint256"
            },
            {
              "internalType": "address",
              "name": "owner",
              "type": "address"
            },
            {
              "internalType": "uint256",
              "name": "ticketPrice",
              "type": "uint256"
            },
            {
              "internalType": "uint256",
              "name": "ticketsAvailable",
              "type": "uint256"
            }
          ],
          "internalType": "struct EventStorage.EventObject",
          "name": "",
          "type": "tuple"
        }
      ],
      "stateMutability": "nonpayable",
      "type": "function"
    }
  ],
  "bytecode": "0x608060405234801561001057600080fd5b50600060018190555061099f806100286000396000f3fe608060405234801561001057600080fd5b50600436106100575760003560e01c8063091dbbd71461005c5780630b7914301461007a57806325298510146100ad5780635aa6f46f146100dd578063b9f636421461010d575b600080fd5b61006461013d565b60405161007191906105be565b60405180910390f35b610094600480360381019061008f919061060a565b610143565b6040516100a49493929190610678565b60405180910390f35b6100c760048036038101906100c291906106bd565b6101a3565b6040516100d49190610783565b60405180910390f35b6100f760048036038101906100f2919061060a565b610325565b6040516101049190610783565b60405180910390f35b610127600480360381019061012291906107ca565b610419565b6040516101349190610783565b60405180910390f35b60015481565b6000818154811061015357600080fd5b90600052602060002090600402016000915090508060000154908060010160009054906101000a900473ffffffffffffffffffffffffffffffffffffffff16908060020154908060030154905084565b6101ab610567565b60015484106101ef576040517f08c379a00000000000000000000000000000000000000000000000000000000081526004016101e69061087a565b60405180910390fd5b60008085815481106102045761020361089a565b5b906000526020600020906004020190508381600201819055508281600301819055508060010160009054906101000a900473ffffffffffffffffffffffffffffffffffffffff1673ffffffffffffffffffffffffffffffffffffffff16857fd8dc39d2246c50ccf63424c52a2c6969a9a0b6d6cb2491728d4af51e45235b2686866040516102939291906108c9565b60405180910390a380604051806080016040529081600082015481526020016001820160009054906101000a900473ffffffffffffffffffffffffffffffffffffffff1673ffffffffffffffffffffffffffffffffffffffff1673ffffffffffffffffffffffffffffffffffffffff168152602001600282015481526020016003820154815250509150509392505050565b61032d610567565b6001548210610371576040517f08c379a00000000000000000000000000000000000000000000000000000000081526004016103689061087a565b60405180910390fd5b600082815481106103855761038461089a565b5b9060005260206000209060040201604051806080016040529081600082015481526020016001820160009054906101000a900473ffffffffffffffffffffffffffffffffffffffff1673ffffffffffffffffffffffffffffffffffffffff1673ffffffffffffffffffffffffffffffffffffffff168152602001600282015481526020016003820154815250509050919050565b610421610567565b6000604051806080016040528060015481526020018473ffffffffffffffffffffffffffffffffffffffff16815260200186815260200185815250905060008190806001815401808255809150506001900390600052602060002090600402016000909190919091506000820151816000015560208201518160010160006101000a81548173ffffffffffffffffffffffffffffffffffffffff021916908373ffffffffffffffffffffffffffffffffffffffff160217905550604082015181600201556060820151816003015550508273ffffffffffffffffffffffffffffffffffffffff166001547f6aa37de372001f0f191357e0d261ce94eea41ccd7fe776dafd460ec254573363878760405161053c9291906108c9565b60405180910390a36001600081548092919061055790610921565b9190505550809150509392505050565b604051806080016040528060008152602001600073ffffffffffffffffffffffffffffffffffffffff16815260200160008152602001600081525090565b6000819050919050565b6105b8816105a5565b82525050565b60006020820190506105d360008301846105af565b92915050565b600080fd5b6105e7816105a5565b81146105f257600080fd5b50565b600081359050610604816105de565b92915050565b6000602082840312156106205761061f6105d9565b5b600061062e848285016105f5565b91505092915050565b600073ffffffffffffffffffffffffffffffffffffffff82169050919050565b600061066282610637565b9050919050565b61067281610657565b82525050565b600060808201905061068d60008301876105af565b61069a6020830186610669565b6106a760408301856105af565b6106b460608301846105af565b95945050505050565b6000806000606084860312156106d6576106d56105d9565b5b60006106e4868287016105f5565b93505060206106f5868287016105f5565b9250506040610706868287016105f5565b9150509250925092565b610719816105a5565b82525050565b61072881610657565b82525050565b6080820160008201516107446000850182610710565b506020820151610757602085018261071f565b50604082015161076a6040850182610710565b50606082015161077d6060850182610710565b50505050565b6000608082019050610798600083018461072e565b92915050565b6107a781610657565b81146107b257600080fd5b50565b6000813590506107c48161079e565b92915050565b6000806000606084860312156107e3576107e26105d9565b5b60006107f1868287016105f5565b9350506020610802868287016105f5565b9250506040610813868287016107b5565b9150509250925092565b600082825260208201905092915050565b7f4576656e7420646f6573206e6f742065786973742e0000000000000000000000600082015250565b600061086460158361081d565b915061086f8261082e565b602082019050919050565b6000602082019050818103600083015261089381610857565b9050919050565b7f4e487b7100000000000000000000000000000000000000000000000000000000600052603260045260246000fd5b60006040820190506108de60008301856105af565b6108eb60208301846105af565b9392505050565b7f4e487b7100000000000000000000000000000000000000000000000000000000600052601160045260246000fd5b600061092c826105a5565b91507fffffffffffffffffffffffffffffffffffffffffffffffffffffffffffffffff820361095e5761095d6108f2565b5b60018201905091905056fea2646970667358221220e7faf03f738ddbc2ac83ad202f19baebba49fcb16d89ffc858d3b1e70388fb7064736f6c63430008140033",
  "linkReferences": {},
  "deployedLinkReferences": {}
}