{
  "_format": "hh-sol-artifact-1",
  "contractName": "EventManagement",
  "sourceName": "contracts/EventManagement.sol",
  "abi": [
    {
      "inputs": [
        {
          "internalType": "address",
          "name": "_eventStorageAddress",
          "type": "address"
        },
        {
          "internalType": "address",
          "name": "_ticketStorageAddress",
          "type": "address"
        }
      ],
      "stateMutability": "nonpayable",
      "type": "constructor"
    },
    {
      "inputs": [
        {
          "internalType": "uint256",
          "name": "ticketPrice",
          "type": "uint256"
        },
        {
          "internalType": "uint256",
          "name": "ticketsAvailable",
          "type": "uint256"
        }
      ],
      "name": "createEvent",
      "outputs": [],
      "stateMutability": "nonpayable",
      "type": "function"
    },
    {
      "inputs": [
        {
          "internalType": "uint256",
          "name": "eventId",
          "type": "uint256"
        },
        {
          "internalType": "uint256",
          "name": "ticketNumber",
          "type": "uint256"
        }
      ],
      "name": "redeemTicket",
      "outputs": [],
      "stateMutability": "nonpayable",
      "type": "function"
    },
    {
      "inputs": [
        {
          "internalType": "uint256",
          "name": "eventId",
          "type": "uint256"
        },
        {
          "internalType": "uint256",
          "name": "newTicketPrice",
          "type": "uint256"
        },
        {
          "internalType": "uint256",
          "name": "newTicketsAvailable",
          "type": "uint256"
        }
      ],
      "name": "updateEvent",
      "outputs": [],
      "stateMutability": "nonpayable",
      "type": "function"
    }
  ],
  "bytecode": "0x608060405234801561001057600080fd5b50604051610b0f380380610b0f8339818101604052810190610032919061011d565b816000806101000a81548173ffffffffffffffffffffffffffffffffffffffff021916908373ffffffffffffffffffffffffffffffffffffffff16021790555080600160006101000a81548173ffffffffffffffffffffffffffffffffffffffff021916908373ffffffffffffffffffffffffffffffffffffffff160217905550505061015d565b600080fd5b600073ffffffffffffffffffffffffffffffffffffffff82169050919050565b60006100ea826100bf565b9050919050565b6100fa816100df565b811461010557600080fd5b50565b600081519050610117816100f1565b92915050565b60008060408385031215610134576101336100ba565b5b600061014285828601610108565b925050602061015385828601610108565b9150509250929050565b6109a38061016c6000396000f3fe608060405234801561001057600080fd5b50600436106100415760003560e01c8063191c87ab146100465780632529851014610062578063790c01251461007e575b600080fd5b610060600480360381019061005b91906104f3565b61009a565b005b61007c60048036038101906100779190610533565b610251565b005b610098600480360381019061009391906104f3565b610409565b005b60008060009054906101000a900473ffffffffffffffffffffffffffffffffffffffff1673ffffffffffffffffffffffffffffffffffffffff16635aa6f46f846040518263ffffffff1660e01b81526004016100f69190610595565b608060405180830381865afa158015610113573d6000803e3d6000fd5b505050506040513d601f19601f82011682018060405250810190610137919061072c565b90503373ffffffffffffffffffffffffffffffffffffffff16816020015173ffffffffffffffffffffffffffffffffffffffff16146101ab576040517f08c379a00000000000000000000000000000000000000000000000000000000081526004016101a2906107b6565b60405180910390fd5b600160009054906101000a900473ffffffffffffffffffffffffffffffffffffffff1673ffffffffffffffffffffffffffffffffffffffff1663191c87ab84846040518363ffffffff1660e01b81526004016102089291906107d6565b60a0604051808303816000875af1158015610227573d6000803e3d6000fd5b505050506040513d601f19601f8201168201806040525081019061024b91906108c3565b50505050565b60008060009054906101000a900473ffffffffffffffffffffffffffffffffffffffff1673ffffffffffffffffffffffffffffffffffffffff16635aa6f46f856040518263ffffffff1660e01b81526004016102ad9190610595565b608060405180830381865afa1580156102ca573d6000803e3d6000fd5b505050506040513d601f19601f820116820180604052508101906102ee919061072c565b90503373ffffffffffffffffffffffffffffffffffffffff16816020015173ffffffffffffffffffffffffffffffffffffffff1614610362576040517f08c379a0000000000000000000000000000000000000000000000000000000008152600401610359906107b6565b60405180910390fd5b60008054906101000a900473ffffffffffffffffffffffffffffffffffffffff1673ffffffffffffffffffffffffffffffffffffffff1663252985108585856040518463ffffffff1660e01b81526004016103bf939291906108f0565b6080604051808303816000875af11580156103de573d6000803e3d6000fd5b505050506040513d601f19601f82011682018060405250810190610402919061072c565b5050505050565b60008054906101000a900473ffffffffffffffffffffffffffffffffffffffff1673ffffffffffffffffffffffffffffffffffffffff1663b9f636428383336040518463ffffffff1660e01b815260040161046693929190610936565b6080604051808303816000875af1158015610485573d6000803e3d6000fd5b505050506040513d601f19601f820116820180604052508101906104a9919061072c565b505050565b6000604051905090565b600080fd5b6000819050919050565b6104d0816104bd565b81146104db57600080fd5b50565b6000813590506104ed816104c7565b92915050565b6000806040838503121561050a576105096104b8565b5b6000610518858286016104de565b9250506020610529858286016104de565b9150509250929050565b60008060006060848603121561054c5761054b6104b8565b5b600061055a868287016104de565b935050602061056b868287016104de565b925050604061057c868287016104de565b9150509250925092565b61058f816104bd565b82525050565b60006020820190506105aa6000830184610586565b92915050565b600080fd5b6000601f19601f8301169050919050565b7f4e487b7100000000000000000000000000000000000000000000000000000000600052604160045260246000fd5b6105fe826105b5565b810181811067ffffffffffffffff8211171561061d5761061c6105c6565b5b80604052505050565b60006106306104ae565b905061063c82826105f5565b919050565b600081519050610650816104c7565b92915050565b600073ffffffffffffffffffffffffffffffffffffffff82169050919050565b600061068182610656565b9050919050565b61069181610676565b811461069c57600080fd5b50565b6000815190506106ae81610688565b92915050565b6000608082840312156106ca576106c96105b0565b5b6106d46080610626565b905060006106e484828501610641565b60008301525060206106f88482850161069f565b602083015250604061070c84828501610641565b604083015250606061072084828501610641565b60608301525092915050565b600060808284031215610742576107416104b8565b5b6000610750848285016106b4565b91505092915050565b600082825260208201905092915050565b7f4e6f7420746865206576656e74206f776e657200000000000000000000000000600082015250565b60006107a0601383610759565b91506107ab8261076a565b602082019050919050565b600060208201905081810360008301526107cf81610793565b9050919050565b60006040820190506107eb6000830185610586565b6107f86020830184610586565b9392505050565b60008115159050919050565b610814816107ff565b811461081f57600080fd5b50565b6000815190506108318161080b565b92915050565b600060a0828403121561084d5761084c6105b0565b5b61085760a0610626565b9050600061086784828501610641565b600083015250602061087b84828501610641565b602083015250604061088f84828501610641565b60408301525060606108a38482850161069f565b60608301525060806108b784828501610822565b60808301525092915050565b600060a082840312156108d9576108d86104b8565b5b60006108e784828501610837565b91505092915050565b60006060820190506109056000830186610586565b6109126020830185610586565b61091f6040830184610586565b949350505050565b61093081610676565b82525050565b600060608201905061094b6000830186610586565b6109586020830185610586565b6109656040830184610927565b94935050505056fea26469706673582212202f8b58ef14e69904c90d8537a70459bedfc69324e1bfc0e0a80ef3b0b93701e964736f6c63430008140033",
  "linkReferences": {},
  "deployedLinkReferences": {}
}