{
  "_format": "hh-sol-artifact-1",
  "contractName": "TicketStorage",
  "sourceName": "contracts/TicketStorage.sol",
  "abi": [
    {
      "anonymous": false,
      "inputs": [
        {
          "indexed": false,
          "internalType": "uint256",
          "name": "ticketNumber",
          "type": "uint256"
        },
        {
          "indexed": false,
          "internalType": "uint256",
          "name": "eventId",
          "type": "uint256"
        },
        {
          "indexed": false,
          "internalType": "uint256",
          "name": "price",
          "type": "uint256"
        },
        {
          "indexed": true,
          "internalType": "address",
          "name": "owner",
          "type": "address"
        },
        {
          "indexed": false,
          "internalType": "bool",
          "name": "isRedeemed",
          "type": "bool"
        }
      ],
      "name": "TicketCreated",
      "type": "event"
    },
    {
      "anonymous": false,
      "inputs": [
        {
          "indexed": false,
          "internalType": "uint256",
          "name": "ticketNumber",
          "type": "uint256"
        },
        {
          "indexed": false,
          "internalType": "uint256",
          "name": "eventId",
          "type": "uint256"
        },
        {
          "indexed": true,
          "internalType": "address",
          "name": "owner",
          "type": "address"
        },
        {
          "indexed": false,
          "internalType": "bool",
          "name": "isRedeemed",
          "type": "bool"
        }
      ],
      "name": "TicketRedeemed",
      "type": "event"
    },
    {
      "inputs": [
        {
          "internalType": "uint256",
          "name": "eventId",
          "type": "uint256"
        },
        {
          "internalType": "uint256",
          "name": "ticketNumber",
          "type": "uint256"
        },
        {
          "internalType": "uint256",
          "name": "price",
          "type": "uint256"
        },
        {
          "internalType": "address",
          "name": "owner",
          "type": "address"
        }
      ],
      "name": "createTicket",
      "outputs": [
        {
          "components": [
            {
              "internalType": "uint256",
              "name": "ticketNumber",
              "type": "uint256"
            },
            {
              "internalType": "uint256",
              "name": "eventId",
              "type": "uint256"
            },
            {
              "internalType": "uint256",
              "name": "price",
              "type": "uint256"
            },
            {
              "internalType": "address",
              "name": "owner",
              "type": "address"
            },
            {
              "internalType": "bool",
              "name": "isRedeemed",
              "type": "bool"
            }
          ],
          "internalType": "struct TicketStorage.Ticket",
          "name": "",
          "type": "tuple"
        }
      ],
      "stateMutability": "nonpayable",
      "type": "function"
    },
    {
      "inputs": [
        {
          "internalType": "uint256",
          "name": "eventId",
          "type": "uint256"
        },
        {
          "internalType": "uint256",
          "name": "ticketNumber",
          "type": "uint256"
        }
      ],
      "name": "getTicket",
      "outputs": [
        {
          "components": [
            {
              "internalType": "uint256",
              "name": "ticketNumber",
              "type": "uint256"
            },
            {
              "internalType": "uint256",
              "name": "eventId",
              "type": "uint256"
            },
            {
              "internalType": "uint256",
              "name": "price",
              "type": "uint256"
            },
            {
              "internalType": "address",
              "name": "owner",
              "type": "address"
            },
            {
              "internalType": "bool",
              "name": "isRedeemed",
              "type": "bool"
            }
          ],
          "internalType": "struct TicketStorage.Ticket",
          "name": "",
          "type": "tuple"
        }
      ],
      "stateMutability": "view",
      "type": "function"
    },
    {
      "inputs": [
        {
          "internalType": "uint256",
          "name": "eventId",
          "type": "uint256"
        }
      ],
      "name": "getTicketCountForEvent",
      "outputs": [
        {
          "internalType": "uint256",
          "name": "",
          "type": "uint256"
        }
      ],
      "stateMutability": "view",
      "type": "function"
    },
    {
      "inputs": [
        {
          "internalType": "uint256",
          "name": "eventId",
          "type": "uint256"
        },
        {
          "internalType": "uint256",
          "name": "ticketNumber",
          "type": "uint256"
        }
      ],
      "name": "redeemTicket",
      "outputs": [
        {
          "components": [
            {
              "internalType": "uint256",
              "name": "ticketNumber",
              "type": "uint256"
            },
            {
              "internalType": "uint256",
              "name": "eventId",
              "type": "uint256"
            },
            {
              "internalType": "uint256",
              "name": "price",
              "type": "uint256"
            },
            {
              "internalType": "address",
              "name": "owner",
              "type": "address"
            },
            {
              "internalType": "bool",
              "name": "isRedeemed",
              "type": "bool"
            }
          ],
          "internalType": "struct TicketStorage.Ticket",
          "name": "",
          "type": "tuple"
        }
      ],
      "stateMutability": "nonpayable",
      "type": "function"
    }
  ],
  "bytecode": "0x608060405234801561001057600080fd5b50610ac4806100206000396000f3fe608060405234801561001057600080fd5b506004361061004c5760003560e01c8063191c87ab146100515780632d8c5b5e14610081578063433420e3146100b1578063a426e4c8146100e1575b600080fd5b61006b6004803603810190610066919061068b565b610111565b604051610078919061079e565b60405180910390f35b61009b600480360381019061009691906107e5565b61032f565b6040516100a8919061079e565b60405180910390f35b6100cb60048036038101906100c6919061084c565b6104c4565b6040516100d89190610888565b60405180910390f35b6100fb60048036038101906100f6919061068b565b6104e1565b604051610108919061079e565b60405180910390f35b610119610609565b6001600084815260200190815260200160002054821061016e576040517f08c379a000000000000000000000000000000000000000000000000000000000815260040161016590610900565b60405180910390fd5b6000806000858152602001908152602001600020600084815260200190815260200160002090508060030160149054906101000a900460ff16156101e7576040517f08c379a00000000000000000000000000000000000000000000000000000000081526004016101de9061096c565b60405180910390fd5b60018160030160146101000a81548160ff0219169083151502179055508060030160009054906101000a900473ffffffffffffffffffffffffffffffffffffffff1673ffffffffffffffffffffffffffffffffffffffff167f714a36646102ca747dd47b3373d240d4caf87eabd384e63f08f4c8ebaf8a334884868460030160149054906101000a900460ff166040516102839392919061099b565b60405180910390a2806040518060a00160405290816000820154815260200160018201548152602001600282015481526020016003820160009054906101000a900473ffffffffffffffffffffffffffffffffffffffff1673ffffffffffffffffffffffffffffffffffffffff1673ffffffffffffffffffffffffffffffffffffffff1681526020016003820160149054906101000a900460ff16151515158152505091505092915050565b610337610609565b60006040518060a001604052808681526020018781526020018581526020018473ffffffffffffffffffffffffffffffffffffffff16815260200160001515815250905080600080888152602001908152602001600020600087815260200190815260200160002060008201518160000155602082015181600101556040820151816002015560608201518160030160006101000a81548173ffffffffffffffffffffffffffffffffffffffff021916908373ffffffffffffffffffffffffffffffffffffffff16021790555060808201518160030160146101000a81548160ff02191690831515021790555090505060016000878152602001908152602001600020600081548092919061044b90610a01565b9190505550806060015173ffffffffffffffffffffffffffffffffffffffff167fa96ca548261ab9868903773405c37e962b19ff215f4ea3c0982768b3ddf277ae82600001518360200151846040015185608001516040516104b09493929190610a49565b60405180910390a280915050949350505050565b600060016000838152602001908152602001600020549050919050565b6104e9610609565b6001600084815260200190815260200160002054821061053e576040517f08c379a000000000000000000000000000000000000000000000000000000000815260040161053590610900565b60405180910390fd5b600080600085815260200190815260200160002060008481526020019081526020016000206040518060a00160405290816000820154815260200160018201548152602001600282015481526020016003820160009054906101000a900473ffffffffffffffffffffffffffffffffffffffff1673ffffffffffffffffffffffffffffffffffffffff1673ffffffffffffffffffffffffffffffffffffffff1681526020016003820160149054906101000a900460ff16151515158152505090508091505092915050565b6040518060a00160405280600081526020016000815260200160008152602001600073ffffffffffffffffffffffffffffffffffffffff1681526020016000151581525090565b600080fd5b6000819050919050565b61066881610655565b811461067357600080fd5b50565b6000813590506106858161065f565b92915050565b600080604083850312156106a2576106a1610650565b5b60006106b085828601610676565b92505060206106c185828601610676565b9150509250929050565b6106d481610655565b82525050565b600073ffffffffffffffffffffffffffffffffffffffff82169050919050565b6000610705826106da565b9050919050565b610715816106fa565b82525050565b60008115159050919050565b6107308161071b565b82525050565b60a08201600082015161074c60008501826106cb565b50602082015161075f60208501826106cb565b50604082015161077260408501826106cb565b506060820151610785606085018261070c565b5060808201516107986080850182610727565b50505050565b600060a0820190506107b36000830184610736565b92915050565b6107c2816106fa565b81146107cd57600080fd5b50565b6000813590506107df816107b9565b92915050565b600080600080608085870312156107ff576107fe610650565b5b600061080d87828801610676565b945050602061081e87828801610676565b935050604061082f87828801610676565b9250506060610840878288016107d0565b91505092959194509250565b60006020828403121561086257610861610650565b5b600061087084828501610676565b91505092915050565b61088281610655565b82525050565b600060208201905061089d6000830184610879565b92915050565b600082825260208201905092915050565b7f5469636b657420646f6573206e6f742065786973742e00000000000000000000600082015250565b60006108ea6016836108a3565b91506108f5826108b4565b602082019050919050565b60006020820190508181036000830152610919816108dd565b9050919050565b7f5469636b657420616c72656164792072656465656d65642e0000000000000000600082015250565b60006109566018836108a3565b915061096182610920565b602082019050919050565b6000602082019050818103600083015261098581610949565b9050919050565b6109958161071b565b82525050565b60006060820190506109b06000830186610879565b6109bd6020830185610879565b6109ca604083018461098c565b949350505050565b7f4e487b7100000000000000000000000000000000000000000000000000000000600052601160045260246000fd5b6000610a0c82610655565b91507fffffffffffffffffffffffffffffffffffffffffffffffffffffffffffffffff8203610a3e57610a3d6109d2565b5b600182019050919050565b6000608082019050610a5e6000830187610879565b610a6b6020830186610879565b610a786040830185610879565b610a85606083018461098c565b9594505050505056fea264697066735822122057fd61dc6a911a525b11f84d8a1fe08cfa425e636efd5215d53ef0e50acf8b8e64736f6c63430008140033",
  "linkReferences": {},
  "deployedLinkReferences": {}
}