{
  "_format": "hh-sol-artifact-1",
  "contractName": "TicketStorage",
  "sourceName": "contracts/TicketStorage.sol",
  "abi": [
    {
      "anonymous": false,
      "inputs": [
        {
          "indexed": true,
          "internalType": "uint256",
          "name": "ticketNumber",
          "type": "uint256"
        },
        {
          "indexed": true,
          "internalType": "uint256",
          "name": "eventId",
          "type": "uint256"
        },
        {
          "indexed": false,
          "internalType": "uint256",
          "name": "price",
          "type": "uint256"
        },
        {
          "indexed": true,
          "internalType": "address",
          "name": "owner",
          "type": "address"
        },
        {
          "indexed": false,
          "internalType": "bool",
          "name": "isRedeemed",
          "type": "bool"
        }
      ],
      "name": "TicketCreated",
      "type": "event"
    },
    {
      "anonymous": false,
      "inputs": [
        {
          "indexed": true,
          "internalType": "uint256",
          "name": "ticketNumber",
          "type": "uint256"
        },
        {
          "indexed": true,
          "internalType": "uint256",
          "name": "eventId",
          "type": "uint256"
        },
        {
          "indexed": true,
          "internalType": "address",
          "name": "owner",
          "type": "address"
        },
        {
          "indexed": false,
          "internalType": "bool",
          "name": "isRedeemed",
          "type": "bool"
        }
      ],
      "name": "TicketRedeemed",
      "type": "event"
    },
    {
      "inputs": [
        {
          "internalType": "uint256",
          "name": "eventId",
          "type": "uint256"
        },
        {
          "internalType": "uint256",
          "name": "ticketNumber",
          "type": "uint256"
        },
        {
          "internalType": "uint256",
          "name": "price",
          "type": "uint256"
        },
        {
          "internalType": "address",
          "name": "owner",
          "type": "address"
        }
      ],
      "name": "createTicket",
      "outputs": [
        {
          "components": [
            {
              "internalType": "uint256",
              "name": "ticketNumber",
              "type": "uint256"
            },
            {
              "internalType": "uint256",
              "name": "eventId",
              "type": "uint256"
            },
            {
              "internalType": "uint256",
              "name": "price",
              "type": "uint256"
            },
            {
              "internalType": "address",
              "name": "owner",
              "type": "address"
            },
            {
              "internalType": "bool",
              "name": "isRedeemed",
              "type": "bool"
            }
          ],
          "internalType": "struct TicketStorage.Ticket",
          "name": "",
          "type": "tuple"
        }
      ],
      "stateMutability": "nonpayable",
      "type": "function"
    },
    {
      "inputs": [
        {
          "internalType": "uint256",
          "name": "eventId",
          "type": "uint256"
        },
        {
          "internalType": "uint256",
          "name": "ticketNumber",
          "type": "uint256"
        }
      ],
      "name": "getTicket",
      "outputs": [
        {
          "components": [
            {
              "internalType": "uint256",
              "name": "ticketNumber",
              "type": "uint256"
            },
            {
              "internalType": "uint256",
              "name": "eventId",
              "type": "uint256"
            },
            {
              "internalType": "uint256",
              "name": "price",
              "type": "uint256"
            },
            {
              "internalType": "address",
              "name": "owner",
              "type": "address"
            },
            {
              "internalType": "bool",
              "name": "isRedeemed",
              "type": "bool"
            }
          ],
          "internalType": "struct TicketStorage.Ticket",
          "name": "",
          "type": "tuple"
        }
      ],
      "stateMutability": "view",
      "type": "function"
    },
    {
      "inputs": [
        {
          "internalType": "uint256",
          "name": "eventId",
          "type": "uint256"
        }
      ],
      "name": "getTicketCountForEvent",
      "outputs": [
        {
          "internalType": "uint256",
          "name": "",
          "type": "uint256"
        }
      ],
      "stateMutability": "view",
      "type": "function"
    },
    {
      "inputs": [
        {
          "internalType": "uint256",
          "name": "eventId",
          "type": "uint256"
        },
        {
          "internalType": "uint256",
          "name": "ticketNumber",
          "type": "uint256"
        }
      ],
      "name": "redeemTicket",
      "outputs": [
        {
          "components": [
            {
              "internalType": "uint256",
              "name": "ticketNumber",
              "type": "uint256"
            },
            {
              "internalType": "uint256",
              "name": "eventId",
              "type": "uint256"
            },
            {
              "internalType": "uint256",
              "name": "price",
              "type": "uint256"
            },
            {
              "internalType": "address",
              "name": "owner",
              "type": "address"
            },
            {
              "internalType": "bool",
              "name": "isRedeemed",
              "type": "bool"
            }
          ],
          "internalType": "struct TicketStorage.Ticket",
          "name": "",
          "type": "tuple"
        }
      ],
      "stateMutability": "nonpayable",
      "type": "function"
    }
  ],
  "bytecode": "0x608060405234801561001057600080fd5b50610a88806100206000396000f3fe608060405234801561001057600080fd5b506004361061004c5760003560e01c8063191c87ab146100515780632d8c5b5e14610081578063433420e3146100b1578063a426e4c8146100e1575b600080fd5b61006b60048036038101906100669190610687565b610111565b604051610078919061079a565b60405180910390f35b61009b600480360381019061009691906107e1565b61032d565b6040516100a8919061079a565b60405180910390f35b6100cb60048036038101906100c69190610848565b6104c0565b6040516100d89190610884565b60405180910390f35b6100fb60048036038101906100f69190610687565b6104dd565b604051610108919061079a565b60405180910390f35b610119610605565b6001600084815260200190815260200160002054821061016e576040517f08c379a0000000000000000000000000000000000000000000000000000000008152600401610165906108fc565b60405180910390fd5b6000806000858152602001908152602001600020600084815260200190815260200160002090508060030160149054906101000a900460ff16156101e7576040517f08c379a00000000000000000000000000000000000000000000000000000000081526004016101de90610968565b60405180910390fd5b60018160030160146101000a81548160ff0219169083151502179055508060030160009054906101000a900473ffffffffffffffffffffffffffffffffffffffff1673ffffffffffffffffffffffffffffffffffffffff1684847f714a36646102ca747dd47b3373d240d4caf87eabd384e63f08f4c8ebaf8a33488460030160149054906101000a900460ff166040516102819190610997565b60405180910390a4806040518060a00160405290816000820154815260200160018201548152602001600282015481526020016003820160009054906101000a900473ffffffffffffffffffffffffffffffffffffffff1673ffffffffffffffffffffffffffffffffffffffff1673ffffffffffffffffffffffffffffffffffffffff1681526020016003820160149054906101000a900460ff16151515158152505091505092915050565b610335610605565b60006040518060a001604052808681526020018781526020018581526020018473ffffffffffffffffffffffffffffffffffffffff16815260200160001515815250905080600080888152602001908152602001600020600087815260200190815260200160002060008201518160000155602082015181600101556040820151816002015560608201518160030160006101000a81548173ffffffffffffffffffffffffffffffffffffffff021916908373ffffffffffffffffffffffffffffffffffffffff16021790555060808201518160030160146101000a81548160ff021916908315150217905550905050600160008781526020019081526020016000206000815480929190610449906109e1565b9190505550806060015173ffffffffffffffffffffffffffffffffffffffff16816020015182600001517fa96ca548261ab9868903773405c37e962b19ff215f4ea3c0982768b3ddf277ae846040015185608001516040516104ac929190610a29565b60405180910390a480915050949350505050565b600060016000838152602001908152602001600020549050919050565b6104e5610605565b6001600084815260200190815260200160002054821061053a576040517f08c379a0000000000000000000000000000000000000000000000000000000008152600401610531906108fc565b60405180910390fd5b600080600085815260200190815260200160002060008481526020019081526020016000206040518060a00160405290816000820154815260200160018201548152602001600282015481526020016003820160009054906101000a900473ffffffffffffffffffffffffffffffffffffffff1673ffffffffffffffffffffffffffffffffffffffff1673ffffffffffffffffffffffffffffffffffffffff1681526020016003820160149054906101000a900460ff16151515158152505090508091505092915050565b6040518060a00160405280600081526020016000815260200160008152602001600073ffffffffffffffffffffffffffffffffffffffff1681526020016000151581525090565b600080fd5b6000819050919050565b61066481610651565b811461066f57600080fd5b50565b6000813590506106818161065b565b92915050565b6000806040838503121561069e5761069d61064c565b5b60006106ac85828601610672565b92505060206106bd85828601610672565b9150509250929050565b6106d081610651565b82525050565b600073ffffffffffffffffffffffffffffffffffffffff82169050919050565b6000610701826106d6565b9050919050565b610711816106f6565b82525050565b60008115159050919050565b61072c81610717565b82525050565b60a08201600082015161074860008501826106c7565b50602082015161075b60208501826106c7565b50604082015161076e60408501826106c7565b5060608201516107816060850182610708565b5060808201516107946080850182610723565b50505050565b600060a0820190506107af6000830184610732565b92915050565b6107be816106f6565b81146107c957600080fd5b50565b6000813590506107db816107b5565b92915050565b600080600080608085870312156107fb576107fa61064c565b5b600061080987828801610672565b945050602061081a87828801610672565b935050604061082b87828801610672565b925050606061083c878288016107cc565b91505092959194509250565b60006020828403121561085e5761085d61064c565b5b600061086c84828501610672565b91505092915050565b61087e81610651565b82525050565b60006020820190506108996000830184610875565b92915050565b600082825260208201905092915050565b7f5469636b657420646f6573206e6f742065786973742e00000000000000000000600082015250565b60006108e660168361089f565b91506108f1826108b0565b602082019050919050565b60006020820190508181036000830152610915816108d9565b9050919050565b7f5469636b657420616c72656164792072656465656d65642e0000000000000000600082015250565b600061095260188361089f565b915061095d8261091c565b602082019050919050565b6000602082019050818103600083015261098181610945565b9050919050565b61099181610717565b82525050565b60006020820190506109ac6000830184610988565b92915050565b7f4e487b7100000000000000000000000000000000000000000000000000000000600052601160045260246000fd5b60006109ec82610651565b91507fffffffffffffffffffffffffffffffffffffffffffffffffffffffffffffffff8203610a1e57610a1d6109b2565b5b600182019050919050565b6000604082019050610a3e6000830185610875565b610a4b6020830184610988565b939250505056fea26469706673582212208920203ff6de65b30dd3db7f5e8d5d7df45a4a948c194b8c1c51bee8826c01b564736f6c63430008140033",
  "linkReferences": {},
  "deployedLinkReferences": {}
}